{
  "abi": [
    {
      "type": "constructor",
      "inputs": [
        {
          "name": "initialOwner",
          "type": "address",
          "internalType": "address"
        },
        {
          "name": "initialFeeWallet",
          "type": "address",
          "internalType": "address"
        }
      ],
      "stateMutability": "nonpayable"
    },
    {
      "type": "function",
      "name": "BPS_DENOMINATOR",
      "inputs": [],
      "outputs": [
        {
          "name": "",
          "type": "uint256",
          "internalType": "uint256"
        }
      ],
      "stateMutability": "view"
    },
    {
      "type": "function",
      "name": "addSupportedToken",
      "inputs": [
        {
          "name": "token",
          "type": "address",
          "internalType": "address"
        },
        {
          "name": "currencyId",
          "type": "bytes32",
          "internalType": "bytes32"
        }
      ],
      "outputs": [],
      "stateMutability": "nonpayable"
    },
    {
      "type": "function",
      "name": "disableToken",
      "inputs": [
        {
          "name": "token",
          "type": "address",
          "internalType": "address"
        }
      ],
      "outputs": [],
      "stateMutability": "nonpayable"
    },
    {
      "type": "function",
      "name": "feeBps",
      "inputs": [],
      "outputs": [
        {
          "name": "",
          "type": "uint256",
          "internalType": "uint256"
        }
      ],
      "stateMutability": "view"
    },
    {
      "type": "function",
      "name": "feeWallet",
      "inputs": [],
      "outputs": [
        {
          "name": "",
          "type": "address",
          "internalType": "address"
        }
      ],
      "stateMutability": "view"
    },
    {
      "type": "function",
      "name": "fund",
      "inputs": [
        {
          "name": "walletAddress",
          "type": "bytes32",
          "internalType": "bytes32"
        },
        {
          "name": "token",
          "type": "address",
          "internalType": "address"
        },
        {
          "name": "amount",
          "type": "uint256",
          "internalType": "uint256"
        }
      ],
      "outputs": [],
      "stateMutability": "nonpayable"
    },
    {
      "type": "function",
      "name": "owner",
      "inputs": [],
      "outputs": [
        {
          "name": "",
          "type": "address",
          "internalType": "address"
        }
      ],
      "stateMutability": "view"
    },
    {
      "type": "function",
      "name": "pause",
      "inputs": [],
      "outputs": [],
      "stateMutability": "nonpayable"
    },
    {
      "type": "function",
      "name": "paused",
      "inputs": [],
      "outputs": [
        {
          "name": "",
          "type": "bool",
          "internalType": "bool"
        }
      ],
      "stateMutability": "view"
    },
    {
      "type": "function",
      "name": "renounceOwnership",
      "inputs": [],
      "outputs": [],
      "stateMutability": "nonpayable"
    },
    {
      "type": "function",
      "name": "rescueTokens",
      "inputs": [
        {
          "name": "token",
          "type": "address",
          "internalType": "address"
        },
        {
          "name": "amount",
          "type": "uint256",
          "internalType": "uint256"
        },
        {
          "name": "receiver",
          "type": "address",
          "internalType": "address"
        }
      ],
      "outputs": [],
      "stateMutability": "nonpayable"
    },
    {
      "type": "function",
      "name": "setFeeBps",
      "inputs": [
        {
          "name": "newFeeBps",
          "type": "uint256",
          "internalType": "uint256"
        }
      ],
      "outputs": [],
      "stateMutability": "nonpayable"
    },
    {
      "type": "function",
      "name": "setFeeWallet",
      "inputs": [
        {
          "name": "newWallet",
          "type": "address",
          "internalType": "address"
        }
      ],
      "outputs": [],
      "stateMutability": "nonpayable"
    },
    {
      "type": "function",
      "name": "supportedTokens",
      "inputs": [
        {
          "name": "",
          "type": "address",
          "internalType": "address"
        }
      ],
      "outputs": [
        {
          "name": "lemipayCurrencyId",
          "type": "bytes32",
          "internalType": "bytes32"
        },
        {
          "name": "enabled",
          "type": "bool",
          "internalType": "bool"
        }
      ],
      "stateMutability": "view"
    },
    {
      "type": "function",
      "name": "transferOwnership",
      "inputs": [
        {
          "name": "newOwner",
          "type": "address",
          "internalType": "address"
        }
      ],
      "outputs": [],
      "stateMutability": "nonpayable"
    },
    {
      "type": "function",
      "name": "unpause",
      "inputs": [],
      "outputs": [],
      "stateMutability": "nonpayable"
    },
    {
      "type": "function",
      "name": "withdraw",
      "inputs": [
        {
          "name": "receiver",
          "type": "address",
          "internalType": "address"
        },
        {
          "name": "walletAddress",
          "type": "bytes32",
          "internalType": "bytes32"
        },
        {
          "name": "token",
          "type": "address",
          "internalType": "address"
        },
        {
          "name": "amount",
          "type": "uint256",
          "internalType": "uint256"
        }
      ],
      "outputs": [],
      "stateMutability": "nonpayable"
    },
    {
      "type": "event",
      "name": "FeeUpdated",
      "inputs": [
        {
          "name": "oldFeeBps",
          "type": "uint256",
          "indexed": false,
          "internalType": "uint256"
        },
        {
          "name": "newFeeBps",
          "type": "uint256",
          "indexed": false,
          "internalType": "uint256"
        }
      ],
      "anonymous": false
    },
    {
      "type": "event",
      "name": "FeeWalletUpdated",
      "inputs": [
        {
          "name": "oldWallet",
          "type": "address",
          "indexed": true,
          "internalType": "address"
        },
        {
          "name": "newWallet",
          "type": "address",
          "indexed": true,
          "internalType": "address"
        }
      ],
      "anonymous": false
    },
    {
      "type": "event",
      "name": "Fund",
      "inputs": [
        {
          "name": "sender",
          "type": "address",
          "indexed": true,
          "internalType": "address"
        },
        {
          "name": "walletAddress",
          "type": "bytes32",
          "indexed": true,
          "internalType": "bytes32"
        },
        {
          "name": "token",
          "type": "address",
          "indexed": true,
          "internalType": "address"
        },
        {
          "name": "currencyId",
          "type": "bytes32",
          "indexed": false,
          "internalType": "bytes32"
        },
        {
          "name": "grossAmount",
          "type": "uint256",
          "indexed": false,
          "internalType": "uint256"
        },
        {
          "name": "feeAmount",
          "type": "uint256",
          "indexed": false,
          "internalType": "uint256"
        },
        {
          "name": "netAmount",
          "type": "uint256",
          "indexed": false,
          "internalType": "uint256"
        }
      ],
      "anonymous": false
    },
    {
      "type": "event",
      "name": "OwnershipTransferred",
      "inputs": [
        {
          "name": "previousOwner",
          "type": "address",
          "indexed": true,
          "internalType": "address"
        },
        {
          "name": "newOwner",
          "type": "address",
          "indexed": true,
          "internalType": "address"
        }
      ],
      "anonymous": false
    },
    {
      "type": "event",
      "name": "Paused",
      "inputs": [
        {
          "name": "account",
          "type": "address",
          "indexed": false,
          "internalType": "address"
        }
      ],
      "anonymous": false
    },
    {
      "type": "event",
      "name": "TokenAdded",
      "inputs": [
        {
          "name": "token",
          "type": "address",
          "indexed": true,
          "internalType": "address"
        },
        {
          "name": "currencyId",
          "type": "bytes32",
          "indexed": true,
          "internalType": "bytes32"
        }
      ],
      "anonymous": false
    },
    {
      "type": "event",
      "name": "TokenDisabled",
      "inputs": [
        {
          "name": "token",
          "type": "address",
          "indexed": true,
          "internalType": "address"
        }
      ],
      "anonymous": false
    },
    {
      "type": "event",
      "name": "Unpaused",
      "inputs": [
        {
          "name": "account",
          "type": "address",
          "indexed": false,
          "internalType": "address"
        }
      ],
      "anonymous": false
    },
    {
      "type": "event",
      "name": "Withdraw",
      "inputs": [
        {
          "name": "receiver",
          "type": "address",
          "indexed": true,
          "internalType": "address"
        },
        {
          "name": "walletAddress",
          "type": "bytes32",
          "indexed": true,
          "internalType": "bytes32"
        },
        {
          "name": "token",
          "type": "address",
          "indexed": true,
          "internalType": "address"
        },
        {
          "name": "currencyId",
          "type": "bytes32",
          "indexed": false,
          "internalType": "bytes32"
        },
        {
          "name": "grossAmount",
          "type": "uint256",
          "indexed": false,
          "internalType": "uint256"
        },
        {
          "name": "feeAmount",
          "type": "uint256",
          "indexed": false,
          "internalType": "uint256"
        },
        {
          "name": "netAmount",
          "type": "uint256",
          "indexed": false,
          "internalType": "uint256"
        }
      ],
      "anonymous": false
    },
    {
      "type": "error",
      "name": "EnforcedPause",
      "inputs": []
    },
    {
      "type": "error",
      "name": "ExpectedPause",
      "inputs": []
    },
    {
      "type": "error",
      "name": "OwnableInvalidOwner",
      "inputs": [
        {
          "name": "owner",
          "type": "address",
          "internalType": "address"
        }
      ]
    },
    {
      "type": "error",
      "name": "OwnableUnauthorizedAccount",
      "inputs": [
        {
          "name": "account",
          "type": "address",
          "internalType": "address"
        }
      ]
    },
    {
      "type": "error",
      "name": "SafeERC20FailedOperation",
      "inputs": [
        {
          "name": "token",
          "type": "address",
          "internalType": "address"
        }
      ]
    }
  ],
  "bytecode": {
    "object": "0x608060405234801561000f575f5ffd5b50604051610e4c380380610e4c83398101604081905261002e916100fb565b816001600160a01b03811661005c57604051631e4fbdf760e01b81525f600482015260240160405180910390fd5b61006581610091565b50600280546001600160a01b0319166001600160a01b039290921691909117905550600a60035561012c565b5f80546001600160a01b038381166001600160a01b0319831681178455604051919092169283917f8be0079c531659141344cd1fd0a4f28419497f9722a3daafe3b4186f6b6457e09190a35050565b80516001600160a01b03811681146100f6575f5ffd5b919050565b5f5f6040838503121561010c575f5ffd5b610115836100e0565b9150610123602084016100e0565b90509250929050565b610d13806101395f395ff3fe608060405234801561000f575f5ffd5b5060043610610106575f3560e01c80638456cb591161009e578063b37fd1901161006e578063b37fd1901461021d578063e1a4521814610230578063f25f4b5614610239578063f2fde38b1461024c578063f8388f0f1461025f575f5ffd5b80638456cb59146101cb5780638da5cb5b146101d357806390d49b9d146101f7578063a43eec871461020a575f5ffd5b80635c975abb116100d95780635c975abb1461015657806368c4ac2614610172578063715018a6146101b057806372c27b62146101b8575f5ffd5b806323e27a641461010a57806324a9d8531461011f5780633f4ba83a1461013b5780634f42f9a114610143575b5f5ffd5b61011d610118366004610b6e565b610272565b005b61012860035481565b6040519081526020015b60405180910390f35b61011d61032b565b61011d610151366004610b8e565b61033d565b5f54600160a01b900460ff166040519015158152602001610132565b61019b610180366004610b6e565b600160208190525f9182526040909120805491015460ff1682565b60408051928352901515602083015201610132565b61011d6103fc565b61011d6101c6366004610bb6565b61040d565b61011d61049b565b5f546001600160a01b03165b6040516001600160a01b039091168152602001610132565b61011d610205366004610b6e565b6104ab565b61011d610218366004610bcd565b61054b565b61011d61022b366004610c0e565b6106d3565b61012861271081565b6002546101df906001600160a01b031681565b61011d61025a366004610b6e565b6106f4565b61011d61026d366004610c47565b610731565b61027a6108af565b6001600160a01b0381165f908152600160208190526040909120015460ff166102de5760405162461bcd60e51b8152602060048201526011602482015270151bdad95b881b9bdd08195b98589b1959607a1b60448201526064015b60405180910390fd5b6001600160a01b0381165f818152600160208190526040808320909101805460ff19169055517f1fac2d788f45089e4f2b9e3484b1163143fdeab5eb480ab9a44b459d2dc476a29190a250565b6103336108af565b61033b6108db565b565b6103456108af565b6001600160a01b03821661038b5760405162461bcd60e51b815260206004820152600d60248201526c24b73b30b634b2103a37b5b2b760991b60448201526064016102d5565b604080518082018252828152600160208083018281526001600160a01b0387165f8181529284905285832094518555905193909201805460ff19169315159390931790925591518392917fe6f2c806df4d61ecb96304200f584c14ad8572a4d28873ae7c636faf01645fdb91a35050565b6104046108af565b61033b5f61092f565b6104156108af565b6103e88111156104565760405162461bcd60e51b815260206004820152600c60248201526b08ccaca40e8dede40d0d2ced60a31b60448201526064016102d5565b600380549082905560408051828152602081018490527f528d9479e9f9889a87a3c30c7f7ba537e5e59c4c85a37733b16e57c62df61302910160405180910390a15050565b6104a36108af565b61033b61097e565b6104b36108af565b6001600160a01b0381166104fa5760405162461bcd60e51b815260206004820152600e60248201526d125b9d985b1a59081dd85b1b195d60921b60448201526064016102d5565b600280546001600160a01b038381166001600160a01b0319831681179093556040519116919082907f362a006325d32978b283e449d254cfcf93e2cccc321603ead9a74238d8dbf36e905f90a35050565b6105536108af565b61055b6109c0565b6001600160a01b0382165f908152600160208181526040928390208351808501909452805484529091015460ff1615159082018190526105d15760405162461bcd60e51b81526020600482015260116024820152702ab739bab83837b93a32b2103a37b5b2b760791b60448201526064016102d5565b5f82116106115760405162461bcd60e51b815260206004820152600e60248201526d125b9d985b1a5908185b5bdd5b9d60921b60448201526064016102d5565b5f612710600354846106239190610c8e565b61062d9190610cab565b90505f61063a8285610cca565b9050811561065c5760025461065c906001600160a01b038781169116846109ea565b6106706001600160a01b03861688836109ea565b825160408051918252602082018690528101839052606081018290526001600160a01b038087169188918a16907fe2a842c259252ccf0dd17c757e87e2d7ed5730d40273aa37f38a9fe143a55dee9060800160405180910390a450505050505050565b6106db6108af565b6106ef6001600160a01b03841682846109ea565b505050565b6106fc6108af565b6001600160a01b03811661072557604051631e4fbdf760e01b81525f60048201526024016102d5565b61072e8161092f565b50565b6107396109c0565b6001600160a01b0382165f908152600160208181526040928390208351808501909452805484529091015460ff1615159082018190526107af5760405162461bcd60e51b81526020600482015260116024820152702ab739bab83837b93a32b2103a37b5b2b760791b60448201526064016102d5565b5f82116107ef5760405162461bcd60e51b815260206004820152600e60248201526d125b9d985b1a5908185b5bdd5b9d60921b60448201526064016102d5565b5f612710600354846108019190610c8e565b61080b9190610cab565b90505f6108188285610cca565b905061082f6001600160a01b038616333087610a1f565b811561084f5760025461084f906001600160a01b038781169116846109ea565b825160408051918252602082018690528101839052606081018290526001600160a01b03861690879033907ff04bfdf1bf30c44c320ca8d70b9f35daf4f5ceb943c24ba13dff1d70630afa609060800160405180910390a4505050505050565b5f546001600160a01b0316331461033b5760405163118cdaa760e01b81523360048201526024016102d5565b6108e3610a5b565b5f805460ff60a01b191690557f5db9ee0a495bf2e6ff9c91a7834c1ba4fdd244a5e8aa4e537bd38aeae4b073aa335b6040516001600160a01b03909116815260200160405180910390a1565b5f80546001600160a01b038381166001600160a01b0319831681178455604051919092169283917f8be0079c531659141344cd1fd0a4f28419497f9722a3daafe3b4186f6b6457e09190a35050565b6109866109c0565b5f805460ff60a01b1916600160a01b1790557f62e78cea01bee320cd4e420270b5ea74000d11b0c9f74754ebdbfc544b05a2586109123390565b5f54600160a01b900460ff161561033b5760405163d93c066560e01b815260040160405180910390fd5b6109f78383836001610a84565b6106ef57604051635274afe760e01b81526001600160a01b03841660048201526024016102d5565b610a2d848484846001610ae6565b610a5557604051635274afe760e01b81526001600160a01b03851660048201526024016102d5565b50505050565b5f54600160a01b900460ff1661033b57604051638dfc202b60e01b815260040160405180910390fd5b60405163a9059cbb60e01b5f8181526001600160a01b038616600452602485905291602083604481808b5af1925060015f51148316610ada578383151615610ace573d5f823e3d81fd5b5f873b113d1516831692505b60405250949350505050565b6040516323b872dd60e01b5f8181526001600160a01b038781166004528616602452604485905291602083606481808c5af1925060015f51148316610b42578383151615610b36573d5f823e3d81fd5b5f883b113d1516831692505b604052505f60605295945050505050565b80356001600160a01b0381168114610b69575f5ffd5b919050565b5f60208284031215610b7e575f5ffd5b610b8782610b53565b9392505050565b5f5f60408385031215610b9f575f5ffd5b610ba883610b53565b946020939093013593505050565b5f60208284031215610bc6575f5ffd5b5035919050565b5f5f5f5f60808587031215610be0575f5ffd5b610be985610b53565b935060208501359250610bfe60408601610b53565b9396929550929360600135925050565b5f5f5f60608486031215610c20575f5ffd5b610c2984610b53565b925060208401359150610c3e60408501610b53565b90509250925092565b5f5f5f60608486031215610c59575f5ffd5b83359250610c6960208501610b53565b929592945050506040919091013590565b634e487b7160e01b5f52601160045260245ffd5b8082028115828204841417610ca557610ca5610c7a565b92915050565b5f82610cc557634e487b7160e01b5f52601260045260245ffd5b500490565b81810381811115610ca557610ca5610c7a56fea26469706673582212201fcc712597633f8dd0bd231ad367541f0991039242a5338d082ffadd4704b3b364736f6c63430008230033",
    "linkReferences": {}
  },
  "methodIdentifiers": {
    "BPS_DENOMINATOR()": "e1a45218",
    "addSupportedToken(address,bytes32)": "4f42f9a1",
    "disableToken(address)": "23e27a64",
    "feeBps()": "24a9d853",
    "feeWallet()": "f25f4b56",
    "fund(bytes32,address,uint256)": "f8388f0f",
    "owner()": "8da5cb5b",
    "pause()": "8456cb59",
    "paused()": "5c975abb",
    "renounceOwnership()": "715018a6",
    "rescueTokens(address,uint256,address)": "b37fd190",
    "setFeeBps(uint256)": "72c27b62",
    "setFeeWallet(address)": "90d49b9d",
    "supportedTokens(address)": "68c4ac26",
    "transferOwnership(address)": "f2fde38b",
    "unpause()": "3f4ba83a",
    "withdraw(address,bytes32,address,uint256)": "a43eec87"
  },
  "id": 34
}